{
  "_format": "hh-sol-artifact-1",
  "contractName": "Skills",
  "sourceName": "contracts/Skills.sol",
  "abi": [
    {
      "inputs": [
        {
          "internalType": "string",
          "name": "_name",
          "type": "string"
        },
        {
          "internalType": "address",
          "name": "_employee",
          "type": "address"
        }
      ],
      "name": "addEmployeeToSkill",
      "outputs": [],
      "stateMutability": "nonpayable",
      "type": "function"
    },
    {
      "inputs": [
        {
          "internalType": "string",
          "name": "_name",
          "type": "string"
        },
        {
          "internalType": "uint256",
          "name": "emp_index",
          "type": "uint256"
        }
      ],
      "name": "getEmployeeBySkillName",
      "outputs": [
        {
          "internalType": "address",
          "name": "",
          "type": "address"
        }
      ],
      "stateMutability": "view",
      "type": "function"
    },
    {
      "inputs": [
        {
          "internalType": "uint256",
          "name": "skill_index",
          "type": "uint256"
        },
        {
          "internalType": "uint256",
          "name": "emp_index",
          "type": "uint256"
        }
      ],
      "name": "getEmployeeInSkillByIndex",
      "outputs": [
        {
          "internalType": "address",
          "name": "",
          "type": "address"
        }
      ],
      "stateMutability": "view",
      "type": "function"
    },
    {
      "inputs": [],
      "name": "getSkillLength",
      "outputs": [
        {
          "internalType": "uint256",
          "name": "",
          "type": "uint256"
        }
      ],
      "stateMutability": "view",
      "type": "function"
    },
    {
      "inputs": [
        {
          "internalType": "uint256",
          "name": "index",
          "type": "uint256"
        }
      ],
      "name": "getSkillsByIndex",
      "outputs": [
        {
          "internalType": "string",
          "name": "",
          "type": "string"
        }
      ],
      "stateMutability": "view",
      "type": "function"
    },
    {
      "inputs": [
        {
          "internalType": "uint256",
          "name": "index",
          "type": "uint256"
        }
      ],
      "name": "getTotalEmployeeInSkillByIndex",
      "outputs": [
        {
          "internalType": "uint256",
          "name": "",
          "type": "uint256"
        }
      ],
      "stateMutability": "view",
      "type": "function"
    },
    {
      "inputs": [
        {
          "internalType": "string",
          "name": "_name",
          "type": "string"
        }
      ],
      "name": "getTotalEmployeeInSkillByName",
      "outputs": [
        {
          "internalType": "uint256",
          "name": "",
          "type": "uint256"
        }
      ],
      "stateMutability": "view",
      "type": "function"
    }
  ],
  "bytecode": "0x608060405234801561001057600080fd5b50610a12806100206000396000f3fe608060405234801561001057600080fd5b506004361061007d5760003560e01c80638673de531161005b5780638673de53146101bd578063bb50d77214610264578063e518dc3c146102c6578063f4cee617146103955761007d565b80632e2acc4c14610082578063359c410f1461015d5780633dc1a6bc1461019f575b600080fd5b61015b6004803603604081101561009857600080fd5b81019080803590602001906401000000008111156100b557600080fd5b8201836020820111156100c757600080fd5b803590602001918460018302840111640100000000831117156100e957600080fd5b91908080601f016020809104026020016040519081016040528093929190818152602001838380828437600081840152601f19601f820116905080830192505050505050509192919290803573ffffffffffffffffffffffffffffffffffffffff169060200190929190505050610484565b005b6101896004803603602081101561017357600080fd5b8101908080359060200190929190505050610603565b6040518082815260200191505060405180910390f35b6101a7610696565b6040518082815260200191505060405180910390f35b6101e9600480360360208110156101d357600080fd5b81019080803590602001909291905050506106a3565b6040518080602001828103825283818151815260200191508051906020019080838360005b8381101561022957808201518184015260208101905061020e565b50505050905090810190601f1680156102565780820380516001836020036101000a031916815260200191505b509250505060405180910390f35b61029a6004803603604081101561027a57600080fd5b81019080803590602001909291908035906020019092919050505061075c565b604051808273ffffffffffffffffffffffffffffffffffffffff16815260200191505060405180910390f35b61037f600480360360208110156102dc57600080fd5b81019080803590602001906401000000008111156102f957600080fd5b82018360208201111561030b57600080fd5b8035906020019184600183028401116401000000008311171561032d57600080fd5b91908080601f016020809104026020016040519081016040528093929190818152602001838380828437600081840152601f19601f820116905080830192505050505050509192919290505050610822565b6040518082815260200191505060405180910390f35b610458600480360360408110156103ab57600080fd5b81019080803590602001906401000000008111156103c857600080fd5b8201836020820111156103da57600080fd5b803590602001918460018302840111640100000000831117156103fc57600080fd5b91908080601f016020809104026020016040519081016040528093929190818152602001838380828437600081840152601f19601f82011690508083019250505050505050919291929080359060200190929190505050610897565b604051808273ffffffffffffffffffffffffffffffffffffffff16815260200191505060405180910390f35b600080836040518082805190602001908083835b602083106104bb5780518252602082019150602081019050602083039250610498565b6001836020036101000a03801982511681845116808217855250505050505090500191505090815260200160405180910390208054905014156105355760018290806001815401808255809150506001900390600052602060002001600090919091909150908051906020019061053392919061093f565b505b6000826040518082805190602001908083835b6020831061056b5780518252602082019150602081019050602083039250610548565b6001836020036101000a0380198251168184511680821785525050505050509050019150509081526020016040518091039020819080600181540180825580915050600190039060005260206000200160009091909190916101000a81548173ffffffffffffffffffffffffffffffffffffffff021916908373ffffffffffffffffffffffffffffffffffffffff1602179055505050565b6000806001838154811061061357fe5b9060005260206000200160405180828054600181600116156101000203166002900480156106785780601f10610656576101008083540402835291820191610678565b820191906000526020600020905b815481529060010190602001808311610664575b50509150509081526020016040518091039020805490509050919050565b6000600180549050905090565b6060600182815481106106b257fe5b906000526020600020018054600181600116156101000203166002900480601f0160208091040260200160405190810160405280929190818152602001828054600181600116156101000203166002900480156107505780601f1061072557610100808354040283529160200191610750565b820191906000526020600020905b81548152906001019060200180831161073357829003601f168201915b50505050509050919050565b6000806001848154811061076c57fe5b9060005260206000200160405180828054600181600116156101000203166002900480156107d15780601f106107af5761010080835404028352918201916107d1565b820191906000526020600020905b8154815290600101906020018083116107bd575b5050915050908152602001604051809103902082815481106107ef57fe5b9060005260206000200160009054906101000a900473ffffffffffffffffffffffffffffffffffffffff16905092915050565b600080826040518082805190602001908083835b602083106108595780518252602082019150602081019050602083039250610836565b6001836020036101000a0380198251168184511680821785525050505050509050019150509081526020016040518091039020805490509050919050565b600080836040518082805190602001908083835b602083106108ce57805182526020820191506020810190506020830392506108ab565b6001836020036101000a0380198251168184511680821785525050505050509050019150509081526020016040518091039020828154811061090c57fe5b9060005260206000200160009054906101000a900473ffffffffffffffffffffffffffffffffffffffff16905092915050565b828054600181600116156101000203166002900490600052602060002090601f016020900481019282601f1061098057805160ff19168380011785556109ae565b828001600101855582156109ae579182015b828111156109ad578251825591602001919060010190610992565b5b5090506109bb91906109bf565b5090565b5b808211156109d85760008160009055506001016109c0565b509056fea26469706673582212206c2920a611484dc5e1082d29852262d0a49cf1c0ca1bb8a9d8e3814ada59794b64736f6c63430007030033",
  "linkReferences": {},
  "deployedLinkReferences": {}
}